{
  "_format": "hh-sol-artifact-1",
  "contractName": "dMarketPlace",
  "sourceName": "contracts/dMarketplace.sol",
  "abi": [
    {
      "inputs": [
        {
          "internalType": "string",
          "name": "_name",
          "type": "string"
        },
        {
          "internalType": "string",
          "name": "_description",
          "type": "string"
        },
        {
          "internalType": "uint256",
          "name": "price",
          "type": "uint256"
        },
        {
          "internalType": "uint256",
          "name": "quantity",
          "type": "uint256"
        }
      ],
      "name": "addProduct",
      "outputs": [],
      "stateMutability": "nonpayable",
      "type": "function"
    },
    {
      "inputs": [
        {
          "internalType": "uint256",
          "name": "_productId",
          "type": "uint256"
        }
      ],
      "name": "buyProduct",
      "outputs": [],
      "stateMutability": "nonpayable",
      "type": "function"
    },
    {
      "inputs": [],
      "name": "getBalance",
      "outputs": [
        {
          "internalType": "uint256",
          "name": "",
          "type": "uint256"
        }
      ],
      "stateMutability": "view",
      "type": "function"
    },
    {
      "inputs": [],
      "name": "getContractBalance",
      "outputs": [
        {
          "internalType": "uint256",
          "name": "",
          "type": "uint256"
        }
      ],
      "stateMutability": "view",
      "type": "function"
    },
    {
      "inputs": [],
      "name": "listProducts",
      "outputs": [
        {
          "components": [
            {
              "internalType": "address payable",
              "name": "sellerId",
              "type": "address"
            },
            {
              "internalType": "uint256",
              "name": "id",
              "type": "uint256"
            },
            {
              "internalType": "string",
              "name": "name",
              "type": "string"
            },
            {
              "internalType": "string",
              "name": "description",
              "type": "string"
            },
            {
              "internalType": "uint256",
              "name": "price",
              "type": "uint256"
            },
            {
              "internalType": "uint256",
              "name": "quantity",
              "type": "uint256"
            }
          ],
          "internalType": "struct dMarketPlace.Product[]",
          "name": "",
          "type": "tuple[]"
        }
      ],
      "stateMutability": "view",
      "type": "function"
    },
    {
      "inputs": [
        {
          "internalType": "address",
          "name": "_sellerId",
          "type": "address"
        }
      ],
      "name": "listProductsBySeller",
      "outputs": [
        {
          "components": [
            {
              "internalType": "address payable",
              "name": "sellerId",
              "type": "address"
            },
            {
              "internalType": "uint256",
              "name": "id",
              "type": "uint256"
            },
            {
              "internalType": "string",
              "name": "name",
              "type": "string"
            },
            {
              "internalType": "string",
              "name": "description",
              "type": "string"
            },
            {
              "internalType": "uint256",
              "name": "price",
              "type": "uint256"
            },
            {
              "internalType": "uint256",
              "name": "quantity",
              "type": "uint256"
            }
          ],
          "internalType": "struct dMarketPlace.Product[]",
          "name": "",
          "type": "tuple[]"
        }
      ],
      "stateMutability": "view",
      "type": "function"
    },
    {
      "inputs": [],
      "name": "owner",
      "outputs": [
        {
          "internalType": "address",
          "name": "",
          "type": "address"
        }
      ],
      "stateMutability": "view",
      "type": "function"
    },
    {
      "inputs": [
        {
          "internalType": "uint256",
          "name": "",
          "type": "uint256"
        }
      ],
      "name": "products",
      "outputs": [
        {
          "internalType": "address payable",
          "name": "sellerId",
          "type": "address"
        },
        {
          "internalType": "uint256",
          "name": "id",
          "type": "uint256"
        },
        {
          "internalType": "string",
          "name": "name",
          "type": "string"
        },
        {
          "internalType": "string",
          "name": "description",
          "type": "string"
        },
        {
          "internalType": "uint256",
          "name": "price",
          "type": "uint256"
        },
        {
          "internalType": "uint256",
          "name": "quantity",
          "type": "uint256"
        }
      ],
      "stateMutability": "view",
      "type": "function"
    },
    {
      "inputs": [
        {
          "internalType": "string",
          "name": "_name",
          "type": "string"
        },
        {
          "internalType": "bool",
          "name": "_isSeller",
          "type": "bool"
        }
      ],
      "name": "register",
      "outputs": [],
      "stateMutability": "nonpayable",
      "type": "function"
    },
    {
      "inputs": [
        {
          "internalType": "address",
          "name": "",
          "type": "address"
        }
      ],
      "name": "users",
      "outputs": [
        {
          "internalType": "address",
          "name": "userId",
          "type": "address"
        },
        {
          "internalType": "string",
          "name": "name",
          "type": "string"
        },
        {
          "internalType": "bool",
          "name": "isSeller",
          "type": "bool"
        }
      ],
      "stateMutability": "view",
      "type": "function"
    }
  ],
  "bytecode": "0x608060405234801561001057600080fd5b50611fdb806100206000396000f3fe608060405234801561001057600080fd5b506004361061009e5760003560e01c806389bb9b001161006657806389bb9b001461014c5780638da5cb5b1461016a5780638f294da614610188578063a87430ba146101a4578063c5c1c163146101d65761009e565b806301cecd14146100a357806312065fe0146100bf5780636f9fb98a146100dd5780637acc0b20146100fb5780638642269e14610130575b600080fd5b6100bd60048036038101906100b8919061130d565b610206565b005b6100c76103a1565b6040516100d491906113bb565b60405180910390f35b6100e56103c0565b6040516100f291906113bb565b60405180910390f35b610115600480360381019061011091906113d6565b6103c8565b604051610127969594939291906114c3565b60405180910390f35b61014a600480360381019061014591906113d6565b610534565b005b61015461088d565b60405161016191906116ec565b60405180910390f35b610172610af4565b60405161017f919061172f565b60405180910390f35b6101a2600480360381019061019d9190611782565b610b18565b005b6101be60048036038101906101b9919061180a565b610cdf565b6040516101cd93929190611846565b60405180910390f35b6101f060048036038101906101eb919061180a565b610dbe565b6040516101fd91906116ec565b60405180910390f35b600260003373ffffffffffffffffffffffffffffffffffffffff1673ffffffffffffffffffffffffffffffffffffffff16815260200190815260200160002060020160009054906101000a900460ff16610295576040517f08c379a000000000000000000000000000000000000000000000000000000000815260040161028c906118d0565b60405180910390fd5b600160008154809291906102a89061191f565b91905055506040518060c001604052803373ffffffffffffffffffffffffffffffffffffffff16815260200160015481526020018581526020018481526020018381526020018281525060036000600154815260200190815260200160002060008201518160000160006101000a81548173ffffffffffffffffffffffffffffffffffffffff021916908373ffffffffffffffffffffffffffffffffffffffff16021790555060208201518160010155604082015181600201908161036d9190611b73565b5060608201518160030190816103839190611b73565b506080820151816004015560a0820151816005015590505050505050565b60003373ffffffffffffffffffffffffffffffffffffffff1631905090565b600047905090565b60036020528060005260406000206000915090508060000160009054906101000a900473ffffffffffffffffffffffffffffffffffffffff169080600101549080600201805461041790611996565b80601f016020809104026020016040519081016040528092919081815260200182805461044390611996565b80156104905780601f1061046557610100808354040283529160200191610490565b820191906000526020600020905b81548152906001019060200180831161047357829003601f168201915b5050505050908060030180546104a590611996565b80601f01602080910402602001604051908101604052809291908181526020018280546104d190611996565b801561051e5780601f106104f35761010080835404028352916020019161051e565b820191906000526020600020905b81548152906001019060200180831161050157829003601f168201915b5050505050908060040154908060050154905086565b600073ffffffffffffffffffffffffffffffffffffffff16600260003373ffffffffffffffffffffffffffffffffffffffff1673ffffffffffffffffffffffffffffffffffffffff16815260200190815260200160002060000160009054906101000a900473ffffffffffffffffffffffffffffffffffffffff1673ffffffffffffffffffffffffffffffffffffffff1603610605576040517f08c379a00000000000000000000000000000000000000000000000000000000081526004016105fc90611c91565b60405180910390fd5b600060036000838152602001908152602001600020600101540361065e576040517f08c379a000000000000000000000000000000000000000000000000000000000815260040161065590611cfd565b60405180910390fd5b60006003600083815260200190815260200160002060050154116106b7576040517f08c379a00000000000000000000000000000000000000000000000000000000081526004016106ae90611d69565b60405180910390fd5b3373ffffffffffffffffffffffffffffffffffffffff166003600083815260200190815260200160002060000160009054906101000a900473ffffffffffffffffffffffffffffffffffffffff1673ffffffffffffffffffffffffffffffffffffffff160361075b576040517f08c379a000000000000000000000000000000000000000000000000000000000815260040161075290611dfb565b60405180910390fd5b3373ffffffffffffffffffffffffffffffffffffffff1631600360008381526020019081526020016000206004015411156107cb576040517f08c379a00000000000000000000000000000000000000000000000000000000081526004016107c290611e8d565b60405180910390fd5b6003600082815260200190815260200160002060050160008154809291906107f290611ead565b91905055506003600082815260200190815260200160002060000160009054906101000a900473ffffffffffffffffffffffffffffffffffffffff1673ffffffffffffffffffffffffffffffffffffffff166108fc60036000848152602001908152602001600020600401549081150290604051600060405180830381858888f19350505050158015610889573d6000803e3d6000fd5b5050565b6060600060015467ffffffffffffffff8111156108ad576108ac6111ac565b5b6040519080825280602002602001820160405280156108e657816020015b6108d3611131565b8152602001906001900390816108cb5790505b5090506000600190505b6001548111610aec57600360008281526020019081526020016000206040518060c00160405290816000820160009054906101000a900473ffffffffffffffffffffffffffffffffffffffff1673ffffffffffffffffffffffffffffffffffffffff1673ffffffffffffffffffffffffffffffffffffffff1681526020016001820154815260200160028201805461098790611996565b80601f01602080910402602001604051908101604052809291908181526020018280546109b390611996565b8015610a005780601f106109d557610100808354040283529160200191610a00565b820191906000526020600020905b8154815290600101906020018083116109e357829003601f168201915b50505050508152602001600382018054610a1990611996565b80601f0160208091040260200160405190810160405280929190818152602001828054610a4590611996565b8015610a925780601f10610a6757610100808354040283529160200191610a92565b820191906000526020600020905b815481529060010190602001808311610a7557829003601f168201915b505050505081526020016004820154815260200160058201548152505082600183610abd9190611ed6565b81518110610ace57610acd611f0a565b5b60200260200101819052508080610ae49061191f565b9150506108f0565b508091505090565b60008054906101000a900473ffffffffffffffffffffffffffffffffffffffff1681565b600073ffffffffffffffffffffffffffffffffffffffff16600260003373ffffffffffffffffffffffffffffffffffffffff1673ffffffffffffffffffffffffffffffffffffffff16815260200190815260200160002060000160009054906101000a900473ffffffffffffffffffffffffffffffffffffffff1673ffffffffffffffffffffffffffffffffffffffff1614610be9576040517f08c379a0000000000000000000000000000000000000000000000000000000008152600401610be090611f85565b60405180910390fd5b60405180606001604052803373ffffffffffffffffffffffffffffffffffffffff168152602001838152602001821515815250600260003373ffffffffffffffffffffffffffffffffffffffff1673ffffffffffffffffffffffffffffffffffffffff16815260200190815260200160002060008201518160000160006101000a81548173ffffffffffffffffffffffffffffffffffffffff021916908373ffffffffffffffffffffffffffffffffffffffff1602179055506020820151816001019081610cb79190611b73565b5060408201518160020160006101000a81548160ff0219169083151502179055509050505050565b60026020528060005260406000206000915090508060000160009054906101000a900473ffffffffffffffffffffffffffffffffffffffff1690806001018054610d2890611996565b80601f0160208091040260200160405190810160405280929190818152602001828054610d5490611996565b8015610da15780601f10610d7657610100808354040283529160200191610da1565b820191906000526020600020905b815481529060010190602001808311610d8457829003601f168201915b5050505050908060020160009054906101000a900460ff16905083565b6060600080600190505b6001548111610e5c578373ffffffffffffffffffffffffffffffffffffffff166003600083815260200190815260200160002060000160009054906101000a900473ffffffffffffffffffffffffffffffffffffffff1673ffffffffffffffffffffffffffffffffffffffff1603610e49578180610e459061191f565b9250505b8080610e549061191f565b915050610dc8565b5060008167ffffffffffffffff811115610e7957610e786111ac565b5b604051908082528060200260200182016040528015610eb257816020015b610e9f611131565b815260200190600190039081610e975790505b509050600080600190505b6001548111611125578573ffffffffffffffffffffffffffffffffffffffff166003600083815260200190815260200160002060000160009054906101000a900473ffffffffffffffffffffffffffffffffffffffff1673ffffffffffffffffffffffffffffffffffffffff160361111257600360008281526020019081526020016000206040518060c00160405290816000820160009054906101000a900473ffffffffffffffffffffffffffffffffffffffff1673ffffffffffffffffffffffffffffffffffffffff1673ffffffffffffffffffffffffffffffffffffffff16815260200160018201548152602001600282018054610fbd90611996565b80601f0160208091040260200160405190810160405280929190818152602001828054610fe990611996565b80156110365780601f1061100b57610100808354040283529160200191611036565b820191906000526020600020905b81548152906001019060200180831161101957829003601f168201915b5050505050815260200160038201805461104f90611996565b80601f016020809104026020016040519081016040528092919081815260200182805461107b90611996565b80156110c85780601f1061109d576101008083540402835291602001916110c8565b820191906000526020600020905b8154815290600101906020018083116110ab57829003601f168201915b50505050508152602001600482015481526020016005820154815250508383815181106110f8576110f7611f0a565b5b6020026020010181905250818061110e9061191f565b9250505b808061111d9061191f565b915050610ebd565b50819350505050919050565b6040518060c00160405280600073ffffffffffffffffffffffffffffffffffffffff16815260200160008152602001606081526020016060815260200160008152602001600081525090565b6000604051905090565b600080fd5b600080fd5b600080fd5b600080fd5b6000601f19601f8301169050919050565b7f4e487b7100000000000000000000000000000000000000000000000000000000600052604160045260246000fd5b6111e48261119b565b810181811067ffffffffffffffff82111715611203576112026111ac565b5b80604052505050565b600061121661117d565b905061122282826111db565b919050565b600067ffffffffffffffff821115611242576112416111ac565b5b61124b8261119b565b9050602081019050919050565b82818337600083830152505050565b600061127a61127584611227565b61120c565b90508281526020810184848401111561129657611295611196565b5b6112a1848285611258565b509392505050565b600082601f8301126112be576112bd611191565b5b81356112ce848260208601611267565b91505092915050565b6000819050919050565b6112ea816112d7565b81146112f557600080fd5b50565b600081359050611307816112e1565b92915050565b6000806000806080858703121561132757611326611187565b5b600085013567ffffffffffffffff8111156113455761134461118c565b5b611351878288016112a9565b945050602085013567ffffffffffffffff8111156113725761137161118c565b5b61137e878288016112a9565b935050604061138f878288016112f8565b92505060606113a0878288016112f8565b91505092959194509250565b6113b5816112d7565b82525050565b60006020820190506113d060008301846113ac565b92915050565b6000602082840312156113ec576113eb611187565b5b60006113fa848285016112f8565b91505092915050565b600073ffffffffffffffffffffffffffffffffffffffff82169050919050565b600061142e82611403565b9050919050565b61143e81611423565b82525050565b600081519050919050565b600082825260208201905092915050565b60005b8381101561147e578082015181840152602081019050611463565b60008484015250505050565b600061149582611444565b61149f818561144f565b93506114af818560208601611460565b6114b88161119b565b840191505092915050565b600060c0820190506114d86000830189611435565b6114e560208301886113ac565b81810360408301526114f7818761148a565b9050818103606083015261150b818661148a565b905061151a60808301856113ac565b61152760a08301846113ac565b979650505050505050565b600081519050919050565b600082825260208201905092915050565b6000819050602082019050919050565b61156781611423565b82525050565b611576816112d7565b82525050565b600082825260208201905092915050565b600061159882611444565b6115a2818561157c565b93506115b2818560208601611460565b6115bb8161119b565b840191505092915050565b600060c0830160008301516115de600086018261155e565b5060208301516115f1602086018261156d565b5060408301518482036040860152611609828261158d565b91505060608301518482036060860152611623828261158d565b9150506080830151611638608086018261156d565b5060a083015161164b60a086018261156d565b508091505092915050565b600061166283836115c6565b905092915050565b6000602082019050919050565b600061168282611532565b61168c818561153d565b93508360208202850161169e8561154e565b8060005b858110156116da57848403895281516116bb8582611656565b94506116c68361166a565b925060208a019950506001810190506116a2565b50829750879550505050505092915050565b600060208201905081810360008301526117068184611677565b905092915050565b600061171982611403565b9050919050565b6117298161170e565b82525050565b60006020820190506117446000830184611720565b92915050565b60008115159050919050565b61175f8161174a565b811461176a57600080fd5b50565b60008135905061177c81611756565b92915050565b6000806040838503121561179957611798611187565b5b600083013567ffffffffffffffff8111156117b7576117b661118c565b5b6117c3858286016112a9565b92505060206117d48582860161176d565b9150509250929050565b6117e78161170e565b81146117f257600080fd5b50565b600081359050611804816117de565b92915050565b6000602082840312156118205761181f611187565b5b600061182e848285016117f5565b91505092915050565b6118408161174a565b82525050565b600060608201905061185b6000830186611720565b818103602083015261186d818561148a565b905061187c6040830184611837565b949350505050565b7f55736572206973206e6f7420612073656c6c6572000000000000000000000000600082015250565b60006118ba60148361144f565b91506118c582611884565b602082019050919050565b600060208201905081810360008301526118e9816118ad565b9050919050565b7f4e487b7100000000000000000000000000000000000000000000000000000000600052601160045260246000fd5b600061192a826112d7565b91507fffffffffffffffffffffffffffffffffffffffffffffffffffffffffffffffff820361195c5761195b6118f0565b5b600182019050919050565b7f4e487b7100000000000000000000000000000000000000000000000000000000600052602260045260246000fd5b600060028204905060018216806119ae57607f821691505b6020821081036119c1576119c0611967565b5b50919050565b60008190508160005260206000209050919050565b60006020601f8301049050919050565b600082821b905092915050565b600060088302611a297fffffffffffffffffffffffffffffffffffffffffffffffffffffffffffffffff826119ec565b611a3386836119ec565b95508019841693508086168417925050509392505050565b6000819050919050565b6000611a70611a6b611a66846112d7565b611a4b565b6112d7565b9050919050565b6000819050919050565b611a8a83611a55565b611a9e611a9682611a77565b8484546119f9565b825550505050565b600090565b611ab3611aa6565b611abe818484611a81565b505050565b5b81811015611ae257611ad7600082611aab565b600181019050611ac4565b5050565b601f821115611b2757611af8816119c7565b611b01846119dc565b81016020851015611b10578190505b611b24611b1c856119dc565b830182611ac3565b50505b505050565b600082821c905092915050565b6000611b4a60001984600802611b2c565b1980831691505092915050565b6000611b638383611b39565b9150826002028217905092915050565b611b7c82611444565b67ffffffffffffffff811115611b9557611b946111ac565b5b611b9f8254611996565b611baa828285611ae6565b600060209050601f831160018114611bdd5760008415611bcb578287015190505b611bd58582611b57565b865550611c3d565b601f198416611beb866119c7565b60005b82811015611c1357848901518255600182019150602085019450602081019050611bee565b86831015611c305784890151611c2c601f891682611b39565b8355505b6001600288020188555050505b505050505050565b7f5573657220646f6573206e6f7420657869737400000000000000000000000000600082015250565b6000611c7b60138361144f565b9150611c8682611c45565b602082019050919050565b60006020820190508181036000830152611caa81611c6e565b9050919050565b7f50726f6475637420646f6573206e6f7420657869737400000000000000000000600082015250565b6000611ce760168361144f565b9150611cf282611cb1565b602082019050919050565b60006020820190508181036000830152611d1681611cda565b9050919050565b7f50726f64756374206973206f7574206f662073746f636b000000000000000000600082015250565b6000611d5360178361144f565b9150611d5e82611d1d565b602082019050919050565b60006020820190508181036000830152611d8281611d46565b9050919050565b7f557365722063616e6e6f7420627579207468656972206f776e2070726f64756360008201527f7400000000000000000000000000000000000000000000000000000000000000602082015250565b6000611de560218361144f565b9150611df082611d89565b604082019050919050565b60006020820190508181036000830152611e1481611dd8565b9050919050565b7f5573657220646f6573206e6f74206861766520656e6f7567682062616c616e6360008201527f6500000000000000000000000000000000000000000000000000000000000000602082015250565b6000611e7760218361144f565b9150611e8282611e1b565b604082019050919050565b60006020820190508181036000830152611ea681611e6a565b9050919050565b6000611eb8826112d7565b915060008203611ecb57611eca6118f0565b5b600182039050919050565b6000611ee1826112d7565b9150611eec836112d7565b9250828203905081811115611f0457611f036118f0565b5b92915050565b7f4e487b7100000000000000000000000000000000000000000000000000000000600052603260045260246000fd5b7f5573657220616c72656164792065786973747300000000000000000000000000600082015250565b6000611f6f60138361144f565b9150611f7a82611f39565b602082019050919050565b60006020820190508181036000830152611f9e81611f62565b905091905056fea2646970667358221220a9271d2dc1d55e733e58e92bc002366134420fa13ea43bb4221a7eaa2ca0f2d864736f6c63430008130033",
  "linkReferences": {},
  "deployedLinkReferences": {}
}